{
  "contractName": "WarrantyContract",
  "abi": [
    {
      "inputs": [],
      "stateMutability": "nonpayable",
      "type": "constructor"
    },
    {
      "anonymous": false,
      "inputs": [
        {
          "indexed": true,
          "internalType": "address",
          "name": "customer",
          "type": "address"
        },
        {
          "indexed": false,
          "internalType": "string",
          "name": "startDate",
          "type": "string"
        },
        {
          "indexed": false,
          "internalType": "string",
          "name": "expiryDate",
          "type": "string"
        },
        {
          "indexed": false,
          "internalType": "string",
          "name": "productInfo",
          "type": "string"
        }
      ],
      "name": "WarrantySent",
      "type": "event"
    },
    {
      "inputs": [],
      "name": "owner",
      "outputs": [
        {
          "internalType": "address",
          "name": "",
          "type": "address"
        }
      ],
      "stateMutability": "view",
      "type": "function",
      "constant": true
    },
    {
      "inputs": [
        {
          "internalType": "address",
          "name": "",
          "type": "address"
        }
      ],
      "name": "warranties",
      "outputs": [
        {
          "internalType": "string",
          "name": "startDate",
          "type": "string"
        },
        {
          "internalType": "string",
          "name": "expiryDate",
          "type": "string"
        },
        {
          "internalType": "string",
          "name": "productInfo",
          "type": "string"
        }
      ],
      "stateMutability": "view",
      "type": "function",
      "constant": true
    },
    {
      "inputs": [
        {
          "internalType": "address",
          "name": "_customer",
          "type": "address"
        },
        {
          "internalType": "string",
          "name": "_startDate",
          "type": "string"
        },
        {
          "internalType": "string",
          "name": "_expiryDate",
          "type": "string"
        },
        {
          "internalType": "string",
          "name": "_productInfo",
          "type": "string"
        }
      ],
      "name": "sendWarranty",
      "outputs": [],
      "stateMutability": "nonpayable",
      "type": "function"
    },
    {
      "inputs": [
        {
          "internalType": "address",
          "name": "_customer",
          "type": "address"
        }
      ],
      "name": "getWarranty",
      "outputs": [
        {
          "internalType": "string",
          "name": "startDate",
          "type": "string"
        },
        {
          "internalType": "string",
          "name": "expiryDate",
          "type": "string"
        },
        {
          "internalType": "string",
          "name": "productInfo",
          "type": "string"
        }
      ],
      "stateMutability": "view",
      "type": "function",
      "constant": true
    }
  ],
  "bytecode": "0x608060405234801561001057600080fd5b50336000806101000a81548173ffffffffffffffffffffffffffffffffffffffff021916908373ffffffffffffffffffffffffffffffffffffffff160217905550610da5806100606000396000f3fe608060405234801561001057600080fd5b506004361061004c5760003560e01c806329854183146100515780638da5cb5b1461006d578063a91ec1891461008b578063f1a881c2146100bd575b600080fd5b61006b60048036038101906100669190610818565b6100ef565b005b610075610274565b60405161008291906108e2565b60405180910390f35b6100a560048036038101906100a091906108fd565b610298565b6040516100b4939291906109a9565b60405180910390f35b6100d760048036038101906100d291906108fd565b61049e565b6040516100e6939291906109a9565b60405180910390f35b60008054906101000a900473ffffffffffffffffffffffffffffffffffffffff1673ffffffffffffffffffffffffffffffffffffffff163373ffffffffffffffffffffffffffffffffffffffff161461017d576040517f08c379a000000000000000000000000000000000000000000000000000000000815260040161017490610a67565b60405180910390fd5b604051806060016040528084815260200183815260200182815250600160008673ffffffffffffffffffffffffffffffffffffffff1673ffffffffffffffffffffffffffffffffffffffff16815260200190815260200160002060008201518160000190816101ec9190610c9d565b5060208201518160010190816102029190610c9d565b5060408201518160020190816102189190610c9d565b509050508373ffffffffffffffffffffffffffffffffffffffff167f8598ed02d7289be4292f79e6093b16ae5584a1fb1fe156962c42f6f1f377f66f848484604051610266939291906109a9565b60405180910390a250505050565b60008054906101000a900473ffffffffffffffffffffffffffffffffffffffff1681565b60608060606000600160008673ffffffffffffffffffffffffffffffffffffffff1673ffffffffffffffffffffffffffffffffffffffff16815260200190815260200160002090508060000181600101826002018280546102f890610ab6565b80601f016020809104026020016040519081016040528092919081815260200182805461032490610ab6565b80156103715780601f1061034657610100808354040283529160200191610371565b820191906000526020600020905b81548152906001019060200180831161035457829003601f168201915b5050505050925081805461038490610ab6565b80601f01602080910402602001604051908101604052809291908181526020018280546103b090610ab6565b80156103fd5780601f106103d2576101008083540402835291602001916103fd565b820191906000526020600020905b8154815290600101906020018083116103e057829003601f168201915b5050505050915080805461041090610ab6565b80601f016020809104026020016040519081016040528092919081815260200182805461043c90610ab6565b80156104895780601f1061045e57610100808354040283529160200191610489565b820191906000526020600020905b81548152906001019060200180831161046c57829003601f168201915b50505050509050935093509350509193909250565b60016020528060005260406000206000915090508060000180546104c190610ab6565b80601f01602080910402602001604051908101604052809291908181526020018280546104ed90610ab6565b801561053a5780601f1061050f5761010080835404028352916020019161053a565b820191906000526020600020905b81548152906001019060200180831161051d57829003601f168201915b50505050509080600101805461054f90610ab6565b80601f016020809104026020016040519081016040528092919081815260200182805461057b90610ab6565b80156105c85780601f1061059d576101008083540402835291602001916105c8565b820191906000526020600020905b8154815290600101906020018083116105ab57829003601f168201915b5050505050908060020180546105dd90610ab6565b80601f016020809104026020016040519081016040528092919081815260200182805461060990610ab6565b80156106565780601f1061062b57610100808354040283529160200191610656565b820191906000526020600020905b81548152906001019060200180831161063957829003601f168201915b5050505050905083565b6000604051905090565b600080fd5b600080fd5b600073ffffffffffffffffffffffffffffffffffffffff82169050919050565b600061069f82610674565b9050919050565b6106af81610694565b81146106ba57600080fd5b50565b6000813590506106cc816106a6565b92915050565b600080fd5b600080fd5b6000601f19601f8301169050919050565b7f4e487b7100000000000000000000000000000000000000000000000000000000600052604160045260246000fd5b610725826106dc565b810181811067ffffffffffffffff82111715610744576107436106ed565b5b80604052505050565b6000610757610660565b9050610763828261071c565b919050565b600067ffffffffffffffff821115610783576107826106ed565b5b61078c826106dc565b9050602081019050919050565b82818337600083830152505050565b60006107bb6107b684610768565b61074d565b9050828152602081018484840111156107d7576107d66106d7565b5b6107e2848285610799565b509392505050565b600082601f8301126107ff576107fe6106d2565b5b813561080f8482602086016107a8565b91505092915050565b600080600080608085870312156108325761083161066a565b5b6000610840878288016106bd565b945050602085013567ffffffffffffffff8111156108615761086061066f565b5b61086d878288016107ea565b935050604085013567ffffffffffffffff81111561088e5761088d61066f565b5b61089a878288016107ea565b925050606085013567ffffffffffffffff8111156108bb576108ba61066f565b5b6108c7878288016107ea565b91505092959194509250565b6108dc81610694565b82525050565b60006020820190506108f760008301846108d3565b92915050565b6000602082840312156109135761091261066a565b5b6000610921848285016106bd565b91505092915050565b600081519050919050565b600082825260208201905092915050565b60005b83811015610964578082015181840152602081019050610949565b60008484015250505050565b600061097b8261092a565b6109858185610935565b9350610995818560208601610946565b61099e816106dc565b840191505092915050565b600060608201905081810360008301526109c38186610970565b905081810360208301526109d78185610970565b905081810360408301526109eb8184610970565b9050949350505050565b7f4f6e6c792074686520636f6e7472616374206f776e65722063616e207065726660008201527f6f726d207468697320616374696f6e0000000000000000000000000000000000602082015250565b6000610a51602f83610935565b9150610a5c826109f5565b604082019050919050565b60006020820190508181036000830152610a8081610a44565b9050919050565b7f4e487b7100000000000000000000000000000000000000000000000000000000600052602260045260246000fd5b60006002820490506001821680610ace57607f821691505b602082108103610ae157610ae0610a87565b5b50919050565b60008190508160005260206000209050919050565b60006020601f8301049050919050565b600082821b905092915050565b600060088302610b497fffffffffffffffffffffffffffffffffffffffffffffffffffffffffffffffff82610b0c565b610b538683610b0c565b95508019841693508086168417925050509392505050565b6000819050919050565b6000819050919050565b6000610b9a610b95610b9084610b6b565b610b75565b610b6b565b9050919050565b6000819050919050565b610bb483610b7f565b610bc8610bc082610ba1565b848454610b19565b825550505050565b600090565b610bdd610bd0565b610be8818484610bab565b505050565b5b81811015610c0c57610c01600082610bd5565b600181019050610bee565b5050565b601f821115610c5157610c2281610ae7565b610c2b84610afc565b81016020851015610c3a578190505b610c4e610c4685610afc565b830182610bed565b50505b505050565b600082821c905092915050565b6000610c7460001984600802610c56565b1980831691505092915050565b6000610c8d8383610c63565b9150826002028217905092915050565b610ca68261092a565b67ffffffffffffffff811115610cbf57610cbe6106ed565b5b610cc98254610ab6565b610cd4828285610c10565b600060209050601f831160018114610d075760008415610cf5578287015190505b610cff8582610c81565b865550610d67565b601f198416610d1586610ae7565b60005b82811015610d3d57848901518255600182019150602085019450602081019050610d18565b86831015610d5a5784890151610d56601f891682610c63565b8355505b6001600288020188555050505b50505050505056fea264697066735822122066dcbc58957e7ab2eac6b2e2c5051da1c91f4ae0f7a2de707f291bc99f1ad4e764736f6c63430008120033",
  "immutableReferences": {},
  "source": "// SPDX-License-Identifier: MIT\r\npragma solidity >=0.4.22 <0.9.0;\r\n\r\n\r\n\r\ncontract WarrantyContract {\r\n    address public owner;\r\n\r\n    struct Warranty {\r\n        string startDate; \r\n        string expiryDate; \r\n        string productInfo;\r\n    }\r\n\r\n    mapping(address => Warranty) public warranties;\r\n\r\n    event WarrantySent(address indexed customer, string startDate, string expiryDate, string productInfo);\r\n\r\n    constructor() {\r\n        owner = msg.sender;\r\n    }\r\n\r\n    modifier onlyOwner() {\r\n        require(msg.sender == owner, \"Only the contract owner can perform this action\");\r\n        _;\r\n    }\r\n\r\n    function sendWarranty(address _customer, string memory _startDate, string memory _expiryDate, string memory _productInfo) external onlyOwner {\r\n        warranties[_customer] = Warranty({\r\n            startDate: _startDate,\r\n            expiryDate: _expiryDate,\r\n            productInfo: _productInfo\r\n        });\r\n        emit WarrantySent(_customer, _startDate, _expiryDate, _productInfo);\r\n    }\r\n\r\n    function getWarranty(address _customer) external view returns (string memory startDate, string memory expiryDate, string memory productInfo) {\r\n        Warranty storage warranty = warranties[_customer];\r\n        return (warranty.startDate, warranty.expiryDate, warranty.productInfo);\r\n    }\r\n}",
  "sourcePath": "C:\\Users\\abdal\\OneDrive\\ \\DHAMANY-BC\\warrantis\\truffle\\contracts\\warranties.sol",
  "compiler": {
    "name": "solc",
    "version": "0.8.18+commit.87f61d96.Emscripten.clang"
  },
  "schemaVersion": "3.4.15",
  "updatedAt": "2023-08-14T18:21:19.872Z",
  "networkType": "ethereum",
  "devdoc": {
    "kind": "dev",
    "methods": {},
    "version": 1
  },
  "userdoc": {
    "kind": "user",
    "methods": {},
    "version": 1
  }
}